{
  "contractName": "FundTransfer",
  "abi": [
    {
      "inputs": [],
      "name": "deposit",
      "outputs": [],
      "stateMutability": "payable",
      "type": "function"
    },
    {
      "inputs": [
        {
          "internalType": "address payable",
          "name": "recipient",
          "type": "address"
        },
        {
          "internalType": "uint256",
          "name": "amount",
          "type": "uint256"
        }
      ],
      "name": "transfer",
      "outputs": [],
      "stateMutability": "nonpayable",
      "type": "function"
    },
    {
      "inputs": [],
      "name": "getBalance",
      "outputs": [
        {
          "internalType": "uint256",
          "name": "",
          "type": "uint256"
        }
      ],
      "stateMutability": "view",
      "type": "function"
    }
  ],
  "bytecode": "0x608060405234801561001057600080fd5b506104a2806100206000396000f3fe6080604052600436106100345760003560e01c806312065fe014610039578063a9059cbb14610064578063d0e30db01461008d575b600080fd5b34801561004557600080fd5b5061004e610097565b60405161005b919061026e565b60405180910390f35b34801561007057600080fd5b5061008b60048036038101906100869190610318565b6100dd565b005b6100956101fe565b005b60008060003373ffffffffffffffffffffffffffffffffffffffff1673ffffffffffffffffffffffffffffffffffffffff16815260200190815260200160002054905090565b6000803373ffffffffffffffffffffffffffffffffffffffff1673ffffffffffffffffffffffffffffffffffffffff1681526020019081526020016000205481111561015e576040517f08c379a0000000000000000000000000000000000000000000000000000000008152600401610155906103b5565b60405180910390fd5b806000803373ffffffffffffffffffffffffffffffffffffffff1673ffffffffffffffffffffffffffffffffffffffff16815260200190815260200160002060008282546101ac9190610404565b925050819055508173ffffffffffffffffffffffffffffffffffffffff166108fc829081150290604051600060405180830381858888f193505050501580156101f9573d6000803e3d6000fd5b505050565b346000803373ffffffffffffffffffffffffffffffffffffffff1673ffffffffffffffffffffffffffffffffffffffff168152602001908152602001600020600082825461024c9190610438565b92505081905550565b6000819050919050565b61026881610255565b82525050565b6000602082019050610283600083018461025f565b92915050565b600080fd5b600073ffffffffffffffffffffffffffffffffffffffff82169050919050565b60006102b98261028e565b9050919050565b6102c9816102ae565b81146102d457600080fd5b50565b6000813590506102e6816102c0565b92915050565b6102f581610255565b811461030057600080fd5b50565b600081359050610312816102ec565b92915050565b6000806040838503121561032f5761032e610289565b5b600061033d858286016102d7565b925050602061034e85828601610303565b9150509250929050565b600082825260208201905092915050565b7f496e73756666696369656e742062616c616e63652e0000000000000000000000600082015250565b600061039f601583610358565b91506103aa82610369565b602082019050919050565b600060208201905081810360008301526103ce81610392565b9050919050565b7f4e487b7100000000000000000000000000000000000000000000000000000000600052601160045260246000fd5b600061040f82610255565b915061041a83610255565b9250828203905081811115610432576104316103d5565b5b92915050565b600061044382610255565b915061044e83610255565b9250828201905080821115610466576104656103d5565b5b9291505056fea26469706673582212200f04f5c524d4fad0853626f80d87e65019f52c3acc3cf52cd6a559dfb40e01e664736f6c63430008130033",
  "immutableReferences": {},
  "source": "pragma solidity ^0.8.0;\n\ncontract FundTransfer {\n    \n    mapping(address => uint256) balances;\n    \n    function deposit() public payable {\n        balances[msg.sender] += msg.value;\n    }\n    \n    function transfer(address payable recipient, uint256 amount) public {\n        require(amount <= balances[msg.sender], \"Insufficient balance.\");\n        \n        balances[msg.sender] -= amount;\n        recipient.transfer(amount);\n    }\n    \n    function getBalance() public view returns (uint256) {\n        return balances[msg.sender];\n    }\n}\n\n",
  "sourcePath": "/Users/kiran/finfund-blockchain/contracts/MyContract.sol",
  "compiler": {
    "name": "solc",
    "version": "0.8.19+commit.7dd6d404.Emscripten.clang"
  },
  "schemaVersion": "3.4.13",
  "updatedAt": "2023-05-05T17:43:54.382Z",
  "devdoc": {
    "kind": "dev",
    "methods": {},
    "version": 1
  },
  "userdoc": {
    "kind": "user",
    "methods": {},
    "version": 1
  }
}